{
  "_format": "hh-sol-artifact-1",
  "contractName": "FamilyTreasury",
  "sourceName": "src/FamilyTreasury.sol",
  "abi": [
    {
      "inputs": [
        {
          "internalType": "address",
          "name": "_token",
          "type": "address"
        },
        {
          "internalType": "string",
          "name": "_treasuryName",
          "type": "string"
        },
        {
          "internalType": "address[]",
          "name": "_initialMembers",
          "type": "address[]"
        },
        {
          "internalType": "string[]",
          "name": "_initialNames",
          "type": "string[]"
        },
        {
          "internalType": "uint256",
          "name": "_threshold",
          "type": "uint256"
        }
      ],
      "stateMutability": "nonpayable",
      "type": "constructor"
    },
    {
      "inputs": [],
      "name": "AlreadyApproved",
      "type": "error"
    },
    {
      "inputs": [],
      "name": "AlreadyCancelled",
      "type": "error"
    },
    {
      "inputs": [],
      "name": "AlreadyExecuted",
      "type": "error"
    },
    {
      "inputs": [],
      "name": "AlreadyMember",
      "type": "error"
    },
    {
      "inputs": [],
      "name": "InsufficientBalance",
      "type": "error"
    },
    {
      "inputs": [],
      "name": "InvalidThreshold",
      "type": "error"
    },
    {
      "inputs": [],
      "name": "NotEnoughApprovals",
      "type": "error"
    },
    {
      "inputs": [],
      "name": "NotMember",
      "type": "error"
    },
    {
      "inputs": [],
      "name": "NotProposer",
      "type": "error"
    },
    {
      "inputs": [],
      "name": "ProposalNotFound",
      "type": "error"
    },
    {
      "inputs": [],
      "name": "ReentrancyGuardReentrantCall",
      "type": "error"
    },
    {
      "inputs": [
        {
          "internalType": "address",
          "name": "token",
          "type": "address"
        }
      ],
      "name": "SafeERC20FailedOperation",
      "type": "error"
    },
    {
      "inputs": [],
      "name": "ZeroAddress",
      "type": "error"
    },
    {
      "inputs": [],
      "name": "ZeroAmount",
      "type": "error"
    },
    {
      "anonymous": false,
      "inputs": [
        {
          "indexed": true,
          "internalType": "address",
          "name": "member",
          "type": "address"
        },
        {
          "indexed": false,
          "internalType": "uint256",
          "name": "amount",
          "type": "uint256"
        },
        {
          "indexed": false,
          "internalType": "uint256",
          "name": "newTotal",
          "type": "uint256"
        },
        {
          "indexed": false,
          "internalType": "uint256",
          "name": "treasuryBalance",
          "type": "uint256"
        }
      ],
      "name": "Contributed",
      "type": "event"
    },
    {
      "anonymous": false,
      "inputs": [
        {
          "indexed": true,
          "internalType": "address",
          "name": "member",
          "type": "address"
        },
        {
          "indexed": false,
          "internalType": "string",
          "name": "name",
          "type": "string"
        }
      ],
      "name": "MemberAdded",
      "type": "event"
    },
    {
      "anonymous": false,
      "inputs": [
        {
          "indexed": true,
          "internalType": "address",
          "name": "member",
          "type": "address"
        }
      ],
      "name": "MemberRemoved",
      "type": "event"
    },
    {
      "anonymous": false,
      "inputs": [
        {
          "indexed": true,
          "internalType": "uint256",
          "name": "id",
          "type": "uint256"
        },
        {
          "indexed": true,
          "internalType": "address",
          "name": "approver",
          "type": "address"
        },
        {
          "indexed": false,
          "internalType": "uint32",
          "name": "approvalCount",
          "type": "uint32"
        }
      ],
      "name": "ProposalApproved",
      "type": "event"
    },
    {
      "anonymous": false,
      "inputs": [
        {
          "indexed": true,
          "internalType": "uint256",
          "name": "id",
          "type": "uint256"
        }
      ],
      "name": "ProposalCancelled",
      "type": "event"
    },
    {
      "anonymous": false,
      "inputs": [
        {
          "indexed": true,
          "internalType": "uint256",
          "name": "id",
          "type": "uint256"
        },
        {
          "indexed": true,
          "internalType": "enum FamilyTreasury.ProposalType",
          "name": "proposalType",
          "type": "uint8"
        },
        {
          "indexed": true,
          "internalType": "address",
          "name": "proposer",
          "type": "address"
        },
        {
          "indexed": false,
          "internalType": "string",
          "name": "description",
          "type": "string"
        }
      ],
      "name": "ProposalCreated",
      "type": "event"
    },
    {
      "anonymous": false,
      "inputs": [
        {
          "indexed": true,
          "internalType": "uint256",
          "name": "id",
          "type": "uint256"
        }
      ],
      "name": "ProposalExecuted",
      "type": "event"
    },
    {
      "anonymous": false,
      "inputs": [
        {
          "indexed": false,
          "internalType": "uint256",
          "name": "oldThreshold",
          "type": "uint256"
        },
        {
          "indexed": false,
          "internalType": "uint256",
          "name": "newThreshold",
          "type": "uint256"
        }
      ],
      "name": "ThresholdChanged",
      "type": "event"
    },
    {
      "inputs": [],
      "name": "activeMemberCount",
      "outputs": [
        {
          "internalType": "uint256",
          "name": "",
          "type": "uint256"
        }
      ],
      "stateMutability": "view",
      "type": "function"
    },
    {
      "inputs": [
        {
          "internalType": "uint256",
          "name": "id",
          "type": "uint256"
        }
      ],
      "name": "approveProposal",
      "outputs": [],
      "stateMutability": "nonpayable",
      "type": "function"
    },
    {
      "inputs": [
        {
          "internalType": "uint256",
          "name": "id",
          "type": "uint256"
        }
      ],
      "name": "cancelProposal",
      "outputs": [],
      "stateMutability": "nonpayable",
      "type": "function"
    },
    {
      "inputs": [
        {
          "internalType": "uint256",
          "name": "amount",
          "type": "uint256"
        }
      ],
      "name": "contribute",
      "outputs": [],
      "stateMutability": "nonpayable",
      "type": "function"
    },
    {
      "inputs": [],
      "name": "contributionCount",
      "outputs": [
        {
          "internalType": "uint256",
          "name": "",
          "type": "uint256"
        }
      ],
      "stateMutability": "view",
      "type": "function"
    },
    {
      "inputs": [
        {
          "internalType": "uint256",
          "name": "",
          "type": "uint256"
        }
      ],
      "name": "contributions",
      "outputs": [
        {
          "internalType": "address",
          "name": "contributor",
          "type": "address"
        },
        {
          "internalType": "uint256",
          "name": "amount",
          "type": "uint256"
        },
        {
          "internalType": "uint64",
          "name": "timestamp",
          "type": "uint64"
        }
      ],
      "stateMutability": "view",
      "type": "function"
    },
    {
      "inputs": [
        {
          "internalType": "uint256",
          "name": "id",
          "type": "uint256"
        }
      ],
      "name": "executeProposal",
      "outputs": [],
      "stateMutability": "nonpayable",
      "type": "function"
    },
    {
      "inputs": [
        {
          "internalType": "uint256",
          "name": "offset",
          "type": "uint256"
        },
        {
          "internalType": "uint256",
          "name": "limit",
          "type": "uint256"
        }
      ],
      "name": "getContributions",
      "outputs": [
        {
          "components": [
            {
              "internalType": "address",
              "name": "contributor",
              "type": "address"
            },
            {
              "internalType": "uint256",
              "name": "amount",
              "type": "uint256"
            },
            {
              "internalType": "uint64",
              "name": "timestamp",
              "type": "uint64"
            }
          ],
          "internalType": "struct FamilyTreasury.Contribution[]",
          "name": "page",
          "type": "tuple[]"
        }
      ],
      "stateMutability": "view",
      "type": "function"
    },
    {
      "inputs": [],
      "name": "getMemberList",
      "outputs": [
        {
          "internalType": "address[]",
          "name": "",
          "type": "address[]"
        }
      ],
      "stateMutability": "view",
      "type": "function"
    },
    {
      "inputs": [
        {
          "internalType": "uint256",
          "name": "id",
          "type": "uint256"
        }
      ],
      "name": "getProposal",
      "outputs": [
        {
          "components": [
            {
              "internalType": "enum FamilyTreasury.ProposalType",
              "name": "proposalType",
              "type": "uint8"
            },
            {
              "internalType": "address",
              "name": "proposer",
              "type": "address"
            },
            {
              "internalType": "address",
              "name": "target",
              "type": "address"
            },
            {
              "internalType": "uint256",
              "name": "amount",
              "type": "uint256"
            },
            {
              "internalType": "string",
              "name": "name",
              "type": "string"
            },
            {
              "internalType": "string",
              "name": "description",
              "type": "string"
            },
            {
              "internalType": "uint32",
              "name": "approvalCount",
              "type": "uint32"
            },
            {
              "internalType": "uint64",
              "name": "createdAt",
              "type": "uint64"
            },
            {
              "internalType": "bool",
              "name": "executed",
              "type": "bool"
            },
            {
              "internalType": "bool",
              "name": "cancelled",
              "type": "bool"
            }
          ],
          "internalType": "struct FamilyTreasury.Proposal",
          "name": "",
          "type": "tuple"
        }
      ],
      "stateMutability": "view",
      "type": "function"
    },
    {
      "inputs": [
        {
          "internalType": "uint256",
          "name": "",
          "type": "uint256"
        },
        {
          "internalType": "address",
          "name": "",
          "type": "address"
        }
      ],
      "name": "hasApproved",
      "outputs": [
        {
          "internalType": "bool",
          "name": "",
          "type": "bool"
        }
      ],
      "stateMutability": "view",
      "type": "function"
    },
    {
      "inputs": [
        {
          "internalType": "uint256",
          "name": "",
          "type": "uint256"
        }
      ],
      "name": "memberList",
      "outputs": [
        {
          "internalType": "address",
          "name": "",
          "type": "address"
        }
      ],
      "stateMutability": "view",
      "type": "function"
    },
    {
      "inputs": [
        {
          "internalType": "address",
          "name": "",
          "type": "address"
        }
      ],
      "name": "members",
      "outputs": [
        {
          "internalType": "string",
          "name": "name",
          "type": "string"
        },
        {
          "internalType": "bool",
          "name": "active",
          "type": "bool"
        },
        {
          "internalType": "uint64",
          "name": "joinedAt",
          "type": "uint64"
        },
        {
          "internalType": "uint256",
          "name": "totalContributed",
          "type": "uint256"
        }
      ],
      "stateMutability": "view",
      "type": "function"
    },
    {
      "inputs": [],
      "name": "proposalCount",
      "outputs": [
        {
          "internalType": "uint256",
          "name": "",
          "type": "uint256"
        }
      ],
      "stateMutability": "view",
      "type": "function"
    },
    {
      "inputs": [
        {
          "internalType": "address",
          "name": "newMember",
          "type": "address"
        },
        {
          "internalType": "string",
          "name": "name",
          "type": "string"
        },
        {
          "internalType": "string",
          "name": "description",
          "type": "string"
        }
      ],
      "name": "proposeAddMember",
      "outputs": [
        {
          "internalType": "uint256",
          "name": "id",
          "type": "uint256"
        }
      ],
      "stateMutability": "nonpayable",
      "type": "function"
    },
    {
      "inputs": [
        {
          "internalType": "uint256",
          "name": "newThreshold",
          "type": "uint256"
        },
        {
          "internalType": "string",
          "name": "description",
          "type": "string"
        }
      ],
      "name": "proposeChangeThreshold",
      "outputs": [
        {
          "internalType": "uint256",
          "name": "id",
          "type": "uint256"
        }
      ],
      "stateMutability": "nonpayable",
      "type": "function"
    },
    {
      "inputs": [
        {
          "internalType": "address",
          "name": "member",
          "type": "address"
        },
        {
          "internalType": "string",
          "name": "description",
          "type": "string"
        }
      ],
      "name": "proposeRemoveMember",
      "outputs": [
        {
          "internalType": "uint256",
          "name": "id",
          "type": "uint256"
        }
      ],
      "stateMutability": "nonpayable",
      "type": "function"
    },
    {
      "inputs": [
        {
          "internalType": "address",
          "name": "to",
          "type": "address"
        },
        {
          "internalType": "uint256",
          "name": "amount",
          "type": "uint256"
        },
        {
          "internalType": "string",
          "name": "description",
          "type": "string"
        }
      ],
      "name": "proposeWithdrawal",
      "outputs": [
        {
          "internalType": "uint256",
          "name": "id",
          "type": "uint256"
        }
      ],
      "stateMutability": "nonpayable",
      "type": "function"
    },
    {
      "inputs": [],
      "name": "threshold",
      "outputs": [
        {
          "internalType": "uint256",
          "name": "",
          "type": "uint256"
        }
      ],
      "stateMutability": "view",
      "type": "function"
    },
    {
      "inputs": [],
      "name": "token",
      "outputs": [
        {
          "internalType": "contract IERC20",
          "name": "",
          "type": "address"
        }
      ],
      "stateMutability": "view",
      "type": "function"
    },
    {
      "inputs": [],
      "name": "treasuryBalance",
      "outputs": [
        {
          "internalType": "uint256",
          "name": "",
          "type": "uint256"
        }
      ],
      "stateMutability": "view",
      "type": "function"
    },
    {
      "inputs": [],
      "name": "treasuryName",
      "outputs": [
        {
          "internalType": "string",
          "name": "",
          "type": "string"
        }
      ],
      "stateMutability": "view",
      "type": "function"
    }
  ],
  "bytecode": "0x60a060405234801562000010575f80fd5b5060405162002b6338038062002b63833981016040819052620000339162000549565b60017f9b779b17422d0df92223018b32b4d1fa46e071723d6817e2486d003becc55f00556001600160a01b0385166200007f5760405163d92e233d60e01b815260040160405180910390fd5b8151835114620000c85760405162461bcd60e51b815260206004820152600f60248201526e0d8cadccee8d040dad2e6dac2e8c6d608b1b60448201526064015b60405180910390fd5b5f8351116200010c5760405162461bcd60e51b815260206004820152600f60248201526e3732b2b2101f1e989036b2b6b132b960891b6044820152606401620000bf565b5f811180156200011d575082518111155b6200015b5760405162461bcd60e51b815260206004820152600d60248201526c189859081d1a1c995cda1bdb19609a1b6044820152606401620000bf565b6001600160a01b0385166080525f620001758582620006e0565b5060018190555f5b835181101562000386575f8482815181106200019d576200019d620007ac565b602002602001015190505f6001600160a01b0316816001600160a01b031603620001da5760405163d92e233d60e01b815260040160405180910390fd5b6001600160a01b0381165f9081526004602052604090206001015460ff161562000217576040516340803a5f60e11b815260040160405180910390fd5b6040518060800160405280858481518110620002375762000237620007ac565b60209081029190910181015182526001828201526001600160401b0342166040808401919091525f60609093018390526001600160a01b038516835260049091529020815181906200028a9082620006e0565b5060208201516001808301805460408601516001600160401b031661010002610100600160481b0319941515949094166001600160481b031990911617929092179091556060909201516002909101556003805491820181555f527fc2575a0e9e593c00f959f8c92f12db2869c3395a3b0502d05e2516446f71f85b0180546001600160a01b0383166001600160a01b0319909116811790915584517f5660dfedd5f2d238aa153a2c488e927eb29ea0e780d70089f0e90c7409a2079c908690859081106200035d576200035d620007ac565b6020026020010151604051620003749190620007c0565b60405180910390a2506001016200017d565b5050905160025550620007f4915050565b80516001600160a01b0381168114620003ae575f80fd5b919050565b634e487b7160e01b5f52604160045260245ffd5b604051601f8201601f191681016001600160401b0381118282101715620003f257620003f2620003b3565b604052919050565b5f5b8381101562000416578181015183820152602001620003fc565b50505f910152565b5f82601f8301126200042e575f80fd5b81516001600160401b038111156200044a576200044a620003b3565b6200045f601f8201601f1916602001620003c7565b81815284602083860101111562000474575f80fd5b62000487826020830160208701620003fa565b949350505050565b5f6001600160401b03821115620004aa57620004aa620003b3565b5060051b60200190565b5f82601f830112620004c4575f80fd5b81516020620004dd620004d7836200048f565b620003c7565b82815260059290921b84018101918181019086841115620004fc575f80fd5b8286015b848110156200053e5780516001600160401b038111156200051f575f80fd5b6200052f8986838b01016200041e565b84525091830191830162000500565b509695505050505050565b5f805f805f60a086880312156200055e575f80fd5b620005698662000397565b602087810151919650906001600160401b038082111562000588575f80fd5b620005968a838b016200041e565b96506040890151915080821115620005ac575f80fd5b818901915089601f830112620005c0575f80fd5b8151620005d1620004d7826200048f565b81815260059190911b8301840190848101908c831115620005f0575f80fd5b938501935b828510156200061957620006098562000397565b82529385019390850190620005f5565b60608c0151909850945050508083111562000632575f80fd5b50506200064288828901620004b4565b925050608086015190509295509295909350565b600181811c908216806200066b57607f821691505b6020821081036200068a57634e487b7160e01b5f52602260045260245ffd5b50919050565b601f821115620006db57805f5260205f20601f840160051c81016020851015620006b75750805b601f840160051c820191505b81811015620006d8575f8155600101620006c3565b50505b505050565b81516001600160401b03811115620006fc57620006fc620003b3565b62000714816200070d845462000656565b8462000690565b602080601f8311600181146200074a575f8415620007325750858301515b5f19600386901b1c1916600185901b178555620007a4565b5f85815260208120601f198616915b828110156200077a5788860151825594840194600190910190840162000759565b50858210156200079857878501515f19600388901b60f8161c191681555b505060018460011b0185555b505050505050565b634e487b7160e01b5f52603260045260245ffd5b602081525f8251806020840152620007e0816040850160208701620003fa565b601f01601f19169190910160400192915050565b60805161232c620008375f395f8181610358015281816105da015281816106db01528181610d6401528181610edd015281816112e50152611392015261232c5ff3fe608060405234801561000f575f80fd5b506004361061013d575f3560e01c8063705a7b54116100b4578063b307fc6d11610079578063b307fc6d146102d9578063c1cbbca714610304578063c7f758a814610317578063da35c66414610337578063e0a8f6f514610340578063fc0c546a14610353575f80fd5b8063705a7b541461026d5780638558ab0514610280578063969439841461029357806398951b56146102a6578063ae7b128a146102b9575f80fd5b8063313dab2011610105578063313dab201461022157806342cde4e81461022957806353b7acdf146102325780635b18056b146102475780635f5d5f001461024f5780635fb6c6ed14610264575f80fd5b806308ae4b0c146101415780630d61b5191461016d5780631cee0700146101825780632358d5a8146101c35780632cdfb41d14610200575b5f80fd5b61015461014f366004611beb565b61037a565b6040516101649493929190611c4e565b60405180910390f35b61018061017b366004611c85565b610435565b005b610195610190366004611c85565b610508565b604080516001600160a01b03909416845260208401929092526001600160401b031690820152606001610164565b6101f06101d1366004611c9c565b600760209081525f928352604080842090915290825290205460ff1681565b6040519015158152602001610164565b61021361020e366004611d0a565b61054c565b604051908152602001610164565b6102136106c4565b61021360015481565b61023a610751565b6040516101649190611d5f565b600854610213565b6102576107dc565b6040516101649190611d71565b61021360025481565b61021361027b366004611dbd565b61083c565b61021361028e366004611e04565b6108f3565b6102136102a1366004611e39565b610a08565b6101806102b4366004611c85565b610b1c565b6102cc6102c7366004611eb3565b610b5a565b6040516101649190611ed3565b6102ec6102e7366004611c85565b610cd5565b6040516001600160a01b039091168152602001610164565b610180610312366004611c85565b610cfd565b61032a610325366004611c85565b610f7c565b6040516101649190611f71565b61021360055481565b61018061034e366004611c85565b6111b1565b6102ec7f000000000000000000000000000000000000000000000000000000000000000081565b60046020525f908152604090208054819061039490612055565b80601f01602080910402602001604051908101604052809291908181526020018280546103c090612055565b801561040b5780601f106103e25761010080835404028352916020019161040b565b820191905f5260205f20905b8154815290600101906020018083116103ee57829003601f168201915b505050506001830154600290930154919260ff8116926101009091046001600160401b0316915084565b335f9081526004602052604090206001015460ff166104675760405163148fe22160e11b815260040160405180910390fd5b5f8181526006602052604090206005810154600160601b900460ff16156104a157604051630dc1019760e01b815260040160405180910390fd5b6005810154600160681b900460ff16156104ce576040516354e3762560e01b815260040160405180910390fd5b600154600582015463ffffffff1610156104fb5760405163125e6df560e11b815260040160405180910390fd5b6105048261128a565b5050565b60088181548110610517575f80fd5b5f9182526020909120600390910201805460018201546002909201546001600160a01b0390911692506001600160401b031683565b335f9081526004602052604081206001015460ff1661057e5760405163148fe22160e11b815260040160405180910390fd5b6001600160a01b0385166105a55760405163d92e233d60e01b815260040160405180910390fd5b835f036105c557604051631f2a200560e01b815260040160405180910390fd5b6040516370a0823160e01b81523060048201527f00000000000000000000000000000000000000000000000000000000000000006001600160a01b0316906370a0823190602401602060405180830381865afa158015610627573d5f803e3d5ffd5b505050506040513d601f19601f8201168201806040525081019061064b919061208d565b84111561066b57604051631e9acf1760e31b815260040160405180910390fd5b6106bb5f868660405180602001604052805f81525087878080601f0160208091040260200160405190810160405280939291908181526020018383808284375f9201919091525061176792505050565b95945050505050565b6040516370a0823160e01b81523060048201525f907f00000000000000000000000000000000000000000000000000000000000000006001600160a01b0316906370a0823190602401602060405180830381865afa158015610728573d5f803e3d5ffd5b505050506040513d601f19601f8201168201806040525081019061074c919061208d565b905090565b5f805461075d90612055565b80601f016020809104026020016040519081016040528092919081815260200182805461078990612055565b80156107d45780601f106107ab576101008083540402835291602001916107d4565b820191905f5260205f20905b8154815290600101906020018083116107b757829003601f168201915b505050505081565b6060600380548060200260200160405190810160405280929190818152602001828054801561083257602002820191905f5260205f20905b81546001600160a01b03168152600190910190602001808311610814575b5050505050905090565b335f9081526004602052604081206001015460ff1661086e5760405163148fe22160e11b815260040160405180910390fd5b83158061087c575060025484115b1561089a5760405163aabd5a0960e01b815260040160405180910390fd5b6108eb60035f8660405180602001604052805f81525087878080601f0160208091040260200160405190810160405280939291908181526020018383808284375f9201919091525061176792505050565b949350505050565b335f9081526004602052604081206001015460ff166109255760405163148fe22160e11b815260040160405180910390fd5b6001600160a01b0384165f9081526004602052604090206001015460ff166109605760405163148fe22160e11b815260040160405180910390fd5b6001600254116109b75760405162461bcd60e51b815260206004820152601960248201527f63616e6e6f742072656d6f7665206c617374206d656d6265720000000000000060448201526064015b60405180910390fd5b6108eb6002855f60405180602001604052805f81525087878080601f0160208091040260200160405190810160405280939291908181526020018383808284375f9201919091525061176792505050565b335f9081526004602052604081206001015460ff16610a3a5760405163148fe22160e11b815260040160405180910390fd5b6001600160a01b038616610a615760405163d92e233d60e01b815260040160405180910390fd5b6001600160a01b0386165f9081526004602052604090206001015460ff1615610a9d576040516340803a5f60e11b815260040160405180910390fd5b610b126001875f88888080601f0160208091040260200160405190810160405280939291908181526020018383808284375f9201919091525050604080516020601f8c018190048102820181019092528a815292508a91508990819084018382808284375f9201919091525061176792505050565b9695505050505050565b335f9081526004602052604090206001015460ff16610b4e5760405163148fe22160e11b815260040160405180910390fd5b610b578161188d565b50565b600854606090808410610bb057604080515f8082526020820190925290610ba7565b604080516060810182525f80825260208083018290529282015282525f19909201910181610b7c5790505b50915050610ccf565b5f610bbb84866120cc565b905081811115610bc85750805b610bd285826120df565b6001600160401b03811115610be957610be96120a4565b604051908082528060200260200182016040528015610c3257816020015b604080516060810182525f80825260208083018290529282015282525f19909201910181610c075790505b509250845b81811015610ccb5760088181548110610c5257610c526120f2565b5f91825260209182902060408051606081018252600390930290910180546001600160a01b031683526001810154938301939093526002909201546001600160401b03169181019190915284610ca888846120df565b81518110610cb857610cb86120f2565b6020908102919091010152600101610c37565b5050505b92915050565b60038181548110610ce4575f80fd5b5f918252602090912001546001600160a01b0316905081565b335f9081526004602052604090206001015460ff16610d2f5760405163148fe22160e11b815260040160405180910390fd5b610d37611a3f565b805f03610d5757604051631f2a200560e01b815260040160405180910390fd5b610d8c6001600160a01b037f000000000000000000000000000000000000000000000000000000000000000016333084611a5a565b335f9081526004602052604081206002018054839290610dad9084906120cc565b909155505060408051606081018252338082526020808301858152426001600160401b03908116858701908152600880546001810182555f91825296517ff3f7a9fe364faab93b216da50a3214154f22a0a2b415b23a84c8169e8b636ee3600390980297880180546001600160a01b0319166001600160a01b0392831617905593517ff3f7a9fe364faab93b216da50a3214154f22a0a2b415b23a84c8169e8b636ee488015590517ff3f7a9fe364faab93b216da50a3214154f22a0a2b415b23a84c8169e8b636ee5909601805467ffffffffffffffff191696909216959095179055828452600491829052928490206002015493516370a0823160e01b8152309181019190915290927fb2623081601722547aae8781994e01a1974d95b0ad9ce6a0cfbe17487556257f9285927f0000000000000000000000000000000000000000000000000000000000000000909116906370a0823190602401602060405180830381865afa158015610f24573d5f803e3d5ffd5b505050506040513d601f19601f82011682018060405250810190610f48919061208d565b6040805193845260208401929092529082015260600160405180910390a2610b5760015f805160206122d783398151915255565b60408051610140810182525f8082526020820181905291810182905260608082018390526080820181905260a082015260c0810182905260e0810182905261010081018290526101208101919091525f8281526006602052604090819020815161014081019092528054829060ff166003811115610ffc57610ffc611f3d565b600381111561100d5761100d611f3d565b815281546001600160a01b036101009091048116602083015260018301541660408201526002820154606082015260038201805460809092019161105090612055565b80601f016020809104026020016040519081016040528092919081815260200182805461107c90612055565b80156110c75780601f1061109e576101008083540402835291602001916110c7565b820191905f5260205f20905b8154815290600101906020018083116110aa57829003601f168201915b505050505081526020016004820180546110e090612055565b80601f016020809104026020016040519081016040528092919081815260200182805461110c90612055565b80156111575780601f1061112e57610100808354040283529160200191611157565b820191905f5260205f20905b81548152906001019060200180831161113a57829003601f168201915b50505091835250506005919091015463ffffffff811660208301526001600160401b03640100000000820416604083015260ff600160601b8204811615156060840152600160681b90910416151560809091015292915050565b5f818152600660205260409020805461010090046001600160a01b031633146111ed57604051637d1b73b960e01b815260040160405180910390fd5b6005810154600160601b900460ff161561121a57604051630dc1019760e01b815260040160405180910390fd5b6005810154600160681b900460ff1615611247576040516354e3762560e01b815260040160405180910390fd5b60058101805460ff60681b1916600160681b17905560405182907f416e669c63d9a3a5e36ee7cc7e2104b8db28ccd286aa18966e98fa230c73b08c905f90a25050565b611292611a3f565b5f81815260066020526040812060058101805460ff60601b1916600160601b17905590815460ff1660038111156112cb576112cb611f3d565b036113c1576040516370a0823160e01b81523060048201527f00000000000000000000000000000000000000000000000000000000000000006001600160a01b0316906370a0823190602401602060405180830381865afa158015611332573d5f803e3d5ffd5b505050506040513d601f19601f82011682018060405250810190611356919061208d565b8160020154111561137a57604051631e9acf1760e31b815260040160405180910390fd5b600181015460028201546113bc916001600160a01b037f0000000000000000000000000000000000000000000000000000000000000000811692911690611a96565b611726565b6001815460ff1660038111156113d9576113d9611f3d565b036115c75760405180608001604052808260030180546113f890612055565b80601f016020809104026020016040519081016040528092919081815260200182805461142490612055565b801561146f5780601f106114465761010080835404028352916020019161146f565b820191905f5260205f20905b81548152906001019060200180831161145257829003601f168201915b5050509183525050600160208083018290526001600160401b0342166040808501919091525f6060909401849052918501546001600160a01b03168352600490529020815181906114c09082612151565b5060208201516001808301805460408601516001600160401b03166101000268ffffffffffffffff00199415159490941668ffffffffffffffffff199091161792909217909155606090920151600291820155828201546003805480850182555f9182527fc2575a0e9e593c00f959f8c92f12db2869c3395a3b0502d05e2516446f71f85b0180546001600160a01b0319166001600160a01b039093169290921790915581546115719084906120cc565b909155505060018101546040516001600160a01b03909116907f5660dfedd5f2d238aa153a2c488e927eb29ea0e780d70089f0e90c7409a2079c906115ba906003850190612210565b60405180910390a2611726565b6002815460ff1660038111156115df576115df611f3d565b036116b9576001808201546001600160a01b03165f9081526004602052604081208201805460ff191690556002805490919061161c9084906120df565b9091555050600254600154111561167b57600180546002549182905560405190917f3164947cf0f49f08dd0cd80e671535b1e11590d347c55dcaa97ba3c24a96b33a9161167191848252602082015260400190565b60405180910390a1505b60018101546040516001600160a01b03909116907f6e76fb4c77256006d9c38ec7d82b45a8c8f3c27b1d6766fffc42dfb8de684492905f90a2611726565b6003815460ff1660038111156116d1576116d1611f3d565b03611726576001805460028301549182905560405190917f3164947cf0f49f08dd0cd80e671535b1e11590d347c55dcaa97ba3c24a96b33a9161171c91848252602082015260400190565b60405180910390a1505b60405182907f712ae1383f79ac853f8d882153778e0260ef8f03b504e2866e0593e04d2b291f905f90a250610b5760015f805160206122d783398151915255565b600580545f91826117778361229a565b909155505f8181526006602052604090208054919250908790829060ff191660018360038111156117aa576117aa611f3d565b02179055508054610100600160a81b03191633610100021781556001810180546001600160a01b0319166001600160a01b03881617905560028101859055600381016117f68582612151565b50600481016118058482612151565b506005810180546bffffffffffffffff000000001916640100000000426001600160401b0316021790553387600381111561184257611842611f3d565b837f2fa4d1bc9ff8794eac01702cd7a1e2321b00783a0bfd55d3e40e25bd3448b72f866040516118729190611d5f565b60405180910390a46118838261188d565b5095945050505050565b5f818152600660205260409020805461010090046001600160a01b03161580156118b657508115155b80156118d55750600581015464010000000090046001600160401b0316155b156118f35760405163635e873760e01b815260040160405180910390fd5b6005810154600160601b900460ff161561192057604051630dc1019760e01b815260040160405180910390fd5b6005810154600160681b900460ff161561194d576040516354e3762560e01b815260040160405180910390fd5b5f82815260076020908152604080832033845290915290205460ff16156119875760405163080fc0bd60e11b815260040160405180910390fd5b5f8281526007602090815260408083203384529091528120805460ff19166001908117909155600583018054919290916119c890849063ffffffff166122b2565b82546101009290920a63ffffffff81810219909316918316021790915560058301546040519116815233915083907f49107ca92c43775debe465ebf104720416ce13b78e0ddf9a6f28560f60eaba079060200160405180910390a3600154600582015463ffffffff1610610504576105048261128a565b611a47611ad0565b60025f805160206122d783398151915255565b611a68848484846001611b01565b611a9057604051635274afe760e01b81526001600160a01b03851660048201526024016109ae565b50505050565b611aa38383836001611b6e565b611acb57604051635274afe760e01b81526001600160a01b03841660048201526024016109ae565b505050565b5f805160206122d783398151915254600203611aff57604051633ee5aeb560e01b815260040160405180910390fd5b565b6040516323b872dd60e01b5f8181526001600160a01b038781166004528616602452604485905291602083606481808c5af1925060015f51148316611b5d578383151615611b51573d5f823e3d81fd5b5f883b113d1516831692505b604052505f60605295945050505050565b60405163a9059cbb60e01b5f8181526001600160a01b038616600452602485905291602083604481808b5af1925060015f51148316611bc4578383151615611bb8573d5f823e3d81fd5b5f873b113d1516831692505b60405250949350505050565b80356001600160a01b0381168114611be6575f80fd5b919050565b5f60208284031215611bfb575f80fd5b611c0482611bd0565b9392505050565b5f81518084525f5b81811015611c2f57602081850181015186830182015201611c13565b505f602082860101526020601f19601f83011685010191505092915050565b608081525f611c606080830187611c0b565b9415156020830152506001600160401b03929092166040830152606090910152919050565b5f60208284031215611c95575f80fd5b5035919050565b5f8060408385031215611cad575f80fd5b82359150611cbd60208401611bd0565b90509250929050565b5f8083601f840112611cd6575f80fd5b5081356001600160401b03811115611cec575f80fd5b602083019150836020828501011115611d03575f80fd5b9250929050565b5f805f8060608587031215611d1d575f80fd5b611d2685611bd0565b93506020850135925060408501356001600160401b03811115611d47575f80fd5b611d5387828801611cc6565b95989497509550505050565b602081525f611c046020830184611c0b565b602080825282518282018190525f9190848201906040850190845b81811015611db15783516001600160a01b031683529284019291840191600101611d8c565b50909695505050505050565b5f805f60408486031215611dcf575f80fd5b8335925060208401356001600160401b03811115611deb575f80fd5b611df786828701611cc6565b9497909650939450505050565b5f805f60408486031215611e16575f80fd5b611e1f84611bd0565b925060208401356001600160401b03811115611deb575f80fd5b5f805f805f60608688031215611e4d575f80fd5b611e5686611bd0565b945060208601356001600160401b0380821115611e71575f80fd5b611e7d89838a01611cc6565b90965094506040880135915080821115611e95575f80fd5b50611ea288828901611cc6565b969995985093965092949392505050565b5f8060408385031215611ec4575f80fd5b50508035926020909101359150565b602080825282518282018190525f919060409081850190868401855b82811015611f3057815180516001600160a01b0316855286810151878601528501516001600160401b03168585015260609093019290850190600101611eef565b5091979650505050505050565b634e487b7160e01b5f52602160045260245ffd5b60048110611f6d57634e487b7160e01b5f52602160045260245ffd5b9052565b60208152611f83602082018351611f51565b5f6020830151611f9e60408401826001600160a01b03169052565b5060408301516001600160a01b0381166060840152506060830151608083015260808301516101408060a0850152611fda610160850183611c0b565b915060a0850151601f198584030160c0860152611ff78382611c0b565b92505060c085015161201160e086018263ffffffff169052565b5060e085015161010061202e818701836001600160401b03169052565b86015190506101206120438682018315159052565b90950151151593019290925250919050565b600181811c9082168061206957607f821691505b60208210810361208757634e487b7160e01b5f52602260045260245ffd5b50919050565b5f6020828403121561209d575f80fd5b5051919050565b634e487b7160e01b5f52604160045260245ffd5b634e487b7160e01b5f52601160045260245ffd5b80820180821115610ccf57610ccf6120b8565b81810381811115610ccf57610ccf6120b8565b634e487b7160e01b5f52603260045260245ffd5b601f821115611acb57805f5260205f20601f840160051c8101602085101561212b5750805b601f840160051c820191505b8181101561214a575f8155600101612137565b5050505050565b81516001600160401b0381111561216a5761216a6120a4565b61217e816121788454612055565b84612106565b602080601f8311600181146121b1575f841561219a5750858301515b5f19600386901b1c1916600185901b178555612208565b5f85815260208120601f198616915b828110156121df578886015182559484019460019091019084016121c0565b50858210156121fc57878501515f19600388901b60f8161c191681555b505060018460011b0185555b505050505050565b5f60208083525f845461222281612055565b806020870152604060018084165f8114612243576001811461225f5761228c565b60ff19851660408a0152604084151560051b8a0101955061228c565b895f5260205f205f5b858110156122835781548b8201860152908301908801612268565b8a016040019650505b509398975050505050505050565b5f600182016122ab576122ab6120b8565b5060010190565b63ffffffff8181168382160190808211156122cf576122cf6120b8565b509291505056fe9b779b17422d0df92223018b32b4d1fa46e071723d6817e2486d003becc55f00a2646970667358221220fef88bb9623997d920af09463bbec58998e8f7a45a02b625d1189c3cd718713264736f6c63430008180033",
  "linkReferences": {},
  "deployedLinkReferences": {}
}